{
  "contractName": "Faucet",
  "abi": [
    {
      "stateMutability": "payable",
      "type": "receive"
    },
    {
      "inputs": [
        {
          "internalType": "uint256",
          "name": "withdraw_amount",
          "type": "uint256"
        }
      ],
      "name": "withdraw",
      "outputs": [],
      "stateMutability": "nonpayable",
      "type": "function"
    }
  ],
  "bytecode": "0x608060405234801561001057600080fd5b50610154806100206000396000f3fe6080604052600436106100225760003560e01c80632e1a7d4d1461002e57610029565b3661002957005b600080fd5b34801561003a57600080fd5b50610055600480360381019061005091906100f1565b610057565b005b67016345785d8a000081111561006c57600080fd5b3373ffffffffffffffffffffffffffffffffffffffff166108fc829081150290604051600060405180830381858888f193505050501580156100b2573d6000803e3d6000fd5b5050565b600080fd5b6000819050919050565b6100ce816100bb565b81146100d957600080fd5b50565b6000813590506100eb816100c5565b92915050565b600060208284031215610107576101066100b6565b5b6000610115848285016100dc565b9150509291505056fea264697066735822122094cecad403fb509a491f3c1ffa8f3915dbeec97005a5a709e9f00b342da5e90664736f6c634300080b0033",
  "immutableReferences": {},
  "source": "// SPDX-License-Identifier: MIT\npragma solidity >=0.4.22 <0.9.0;\n\n// Our first contract is a faucet!\ncontract Faucet {\n    // Accept any incoming amount\n    receive() external payable {}\n\n    // Give out ether to anyone who asks\n    function withdraw(uint256 withdraw_amount) public {\n        // Limit withdrawal amount\n        require(withdraw_amount <= 100000000000000000);\n\n        // Send the amount to the address that requested it\n        payable(msg.sender).transfer(withdraw_amount);\n    }\n}\n",
  "sourcePath": "/workspace/contracts/Faucet.sol",
  "compiler": {
    "name": "solc",
    "version": "0.8.11+commit.d7f03943.Emscripten.clang"
  },
  "schemaVersion": "3.4.5",
  "updatedAt": "2022-02-24T11:38:47.399Z",
  "devdoc": {
    "kind": "dev",
    "methods": {},
    "version": 1
  },
  "userdoc": {
    "kind": "user",
    "methods": {},
    "version": 1
  }
}